:020000040000FA
:100000000C945D000C9485000C9485000C94850084
:100010000C9485000C9485000C9485000C9485004C
:100020000C9485000C9485000C9485000C9485003C
:100030000C9485000C9485000C9485000C9485002C
:100040000C944E020C9485000C94BE020C94980201
:100050000C9485000C9485000C9485000C9485000C
:100060000C9485000C9485000000000024002700FB
:100070002A0000000000250028002B0004040404CE
:100080000404040402020202020203030303030342
:10009000010204081020408001020408102001021F
:1000A00004081020000000080002010000030407FB
:1000B00000000000000000003C0411241FBECFEF30
:1000C000D8E0DEBFCDBF12E0A0E0B1E0E6E2F9E0AB
:1000D00002C005900D92A830B107D9F722E0A8E040
:1000E000B2E001C01D92A23BB207E1F710E0CDE5FE
:1000F000D0E004C02197FE010E948B04CC35D107CB
:10010000C9F70E94F0020C9491040C940000E1EBFA
:10011000F0E02491EDE9F0E09491E9E8F0E0E49179
:10012000EE23C9F0222339F0233001F1A8F4213065
:1001300019F1223029F1F0E0EE0FFF1FEE58FF4FCA
:10014000A591B4912FB7F894EC91811126C09095A8
:100150009E239C932FBF08952730A9F02830C9F023
:10016000243049F7209180002F7D03C0209180002A
:100170002F7720938000DFCF24B52F7724BDDBCFEE
:1001800024B52F7DFBCF2091B0002F772093B000B6
:10019000D2CF2091B0002F7DF9CF9E2BDACF3FB781
:1001A000F8948091110290911202A0911302B091E3
:1001B000140226B5A89B05C02F3F19F00196A11D7A
:1001C000B11D3FBFBA2FA92F982F8827BC01CD01A1
:1001D000620F711D811D911D42E0660F771F881F00
:1001E000991F4A95D1F708958F929F92AF92BF922F
:1001F000CF92DF92EF92FF924B015C010E94CF0001
:100200006B017C010E94CF006C197D098E099F094A
:10021000683E734081059105A8F321E0821A910898
:10022000A108B10888EEC80E83E0D81EE11CF11CBD
:1002300081149104A104B10429F7FF90EF90DF909D
:10024000CF90BF90AF909F908F900895AF92BF9244
:10025000CF92DF92EF92FF920F931F93CF93DF9392
:100260006C017B018B01040F151FEB015E01AE18C1
:10027000BF08C017D10759F06991D601ED91FC91E3
:100280000190F081E02DC6010995892B79F7C50110
:10029000DF91CF911F910F91FF90EF90DF90CF9062
:1002A000BF90AF900895FC01538D448D252F30E011
:1002B000842F90E0821B930B541710F0CF96089573
:1002C00001970895FC01918D828D981761F0A28DA0
:1002D000AE0FBF2FB11D5D968C91928D9F5F9F7366
:1002E000928F90E008958FEF9FEF0895FC01918D1C
:1002F000828D981731F0828DE80FF11D858D90E089
:1003000008958FEF9FEF0895FC01918D228D892F25
:1003100090E0805C9F4F821B91098F73992708950D
:1003200085E192E00E94840121E0892B09F420E01C
:10033000822F089580E090E0892B29F00E9490019F
:1003400081110C9400000895FC01A48DA80FB92F11
:10035000B11DA35ABF4F2C91848D90E001968F73ED
:100360009927848FA689B7892C93A089B1898C910C
:10037000837080648C93938D848D981306C002885B
:10038000F389E02D80818F7D80830895EF92FF9225
:100390000F931F93CF93DF93EC0181E0888F9B8DA8
:1003A0008C8D98131AC0E889F989808185FF15C062
:1003B0009FB7F894EE89FF896083E889F989808185
:1003C0008370806480839FBF81E090E0DF91CF9154
:1003D0001F910F91FF90EF900895F62E0B8D10E076
:1003E0000F5F1F4F0F731127E02E8C8D8E110CC0E5
:1003F0000FB607FCFACFE889F989808185FFF5CF30
:10040000CE010E94A401F1CFEB8DEC0FFD2FF11D69
:10041000E35AFF4FF0829FB7F8940B8FEA89FB896C
:1004200080818062CFCFCF93DF93EC01888D8823CA
:10043000B9F0AA89BB89E889F9898C9185FD03C047
:10044000808186FD0DC00FB607FCF7CF8C9185FF2C
:10045000F2CF808185FFEDCFCE010E94A401E9CFCC
:10046000DF91CF910895FC0101900020E9F73197C9
:10047000AF01481B590BBC0185E192E00C942601A9
:10048000CF93DF930E943302EC0182E191E00E945E
:1004900033028C0F9D1FDF91CF9108951F920F9211
:1004A0000FB60F9211242F933F938F939F93AF9387
:1004B000BF9380910D0290910E02A0910F02B09116
:1004C000100230910C0223E0230F2D3758F50196CE
:1004D000A11DB11D20930C0280930D0290930E027A
:1004E000A0930F02B093100280911102909112021A
:1004F000A0911302B09114020196A11DB11D809329
:10050000110290931202A0931302B0931402BF91B0
:10051000AF919F918F913F912F910F900FBE0F90B0
:100520001F90189526E8230F0296A11DB11DD2CF6A
:100530001F920F920FB60F9211242F933F934F9358
:100540005F936F937F938F939F93AF93BF93EF933B
:10055000FF9385E192E00E94A401FF91EF91BF918A
:10056000AF919F918F917F916F915F914F913F914B
:100570002F910F900FBE0F901F9018951F920F9202
:100580000FB60F9211242F938F939F93EF93FF93A6
:10059000E0912502F09126028081E0912B02F091FA
:1005A0002C0282FD1BC0908180912E028F5F8F7381
:1005B00020912F02821741F0E0912E02F0E0EB5ED5
:1005C000FD4F958F80932E02FF91EF919F918F9118
:1005D0002F910F900FBE0F901F9018958081F4CF30
:1005E000CF93DF93CDB7DEB7A1970FB6F894DEBFF8
:1005F0000FBECDBF789484B5826084BD84B5816020
:1006000084BD85B5826085BD85B5816085BD8091DD
:100610006E00816080936E00109281008091810055
:10062000826080938100809181008160809381004D
:10063000809180008160809380008091B10084600F
:100640008093B1008091B00081608093B000809170
:100650007A00846080937A0080917A00826080932F
:100660007A0080917A00816080937A0080917A008C
:10067000806880937A001092C100EDE9F0E0249147
:10068000E9E8F0E08491882399F090E0880F991FC1
:10069000FC01E859FF4FA591B491FC01EE58FF4FC2
:1006A000859194918FB7F894EC91E22BEC938FBFE6
:1006B00003E010E081E00E94870064E670E080E0E3
:1006C00090E00E94F40080E00E94870064E670E001
:1006D00080E090E00E94F4000150110959F7E09188
:1006E0002502F091260282E08083E0912102F091C0
:1006F00022021082E0912302F091240280E18083A3
:1007000010922D02E0912902F0912A0286E0808366
:10071000E0912702F0912802808180618083E0913E
:100720002702F0912802808188608083E09127026F
:10073000F0912802808180688083E0912702F09107
:10074000280280818F7D808364E670E080E090E005
:100750000E94F4008CE191E00E9440028EE391E05F
:100760000E94400281E591E00E94330289E591E018
:100770000E9440028FE691E00E94330281E891E0FE
:100780000E94330286E092E00E9433028DE891E0FD
:100790000E94400286E991E00E94400282EB91E0D3
:1007A0000E94400284ED91E00E9440028AE0882E7F
:1007B000912CA12CB12C90E0E92E90E0F92E8091A3
:1007C000080281700E94870085EF91E00E94330249
:1007D000209108023091090240910A0250910B02C7
:1007E00019A28E010F5D1F4FCA01B901A501940125
:1007F0000E946904605DF80162938F012115310543
:100800004105510589F7309719F0CF010E94330255
:100810008FEF91E00E9433028091080280FD29C091
:1008200088E191E00E9440028091080290910902C3
:10083000A0910A02B0910B020196A11DB11D8093F7
:10084000080290930902A0930A02B0930B0268EE8B
:1008500073E080E090E00E94F400E114F10409F4F8
:10086000AECF0E949001882309F4A9CF0E94000016
:10087000A6CF85E191E0D6CFE5E1F2E013821282C6
:1008800088EE93E0A0E0B0E084839583A683B783ED
:1008900084E091E09183808385EC90E09587848764
:1008A00084EC90E09787868780EC90E0918B808B3A
:1008B00081EC90E0938B828B82EC90E0958B848B23
:1008C00086EC90E0978B868B118E128E138E148E91
:1008D0000895A1E21A2EAA1BBB1BFD010DC0AA1F81
:1008E000BB1FEE1FFF1FA217B307E407F50720F099
:1008F000A21BB30BE40BF50B661F771F881F991F14
:100900001A9469F760957095809590959B01AC015C
:10091000BD01CF010895EE0FFF1F0590F491E02D6A
:100920000994F894FFCF00000000C601260153018E
:1009300013028401620176010D0A004F4E004F46FA
:1009400046000A0A3D3D3D2041524455494E4F2044
:10095000444941474E4F5354494320544553542032
:100960003D3D3D0055706C6F616420737563636538
:10097000737366756C2100426F6172643A200041A6
:10098000546D656761333238502028556E6F2F4E95
:10099000616E6F2900536B6574636820636F6D70BF
:1009A000696C65643A20004A756E20313920323016
:1009B00032350032313A32393A3433004C45442032
:1009C00077696C6C20626C696E6B206576657279F4
:1009D000207365636F6E6400436F756E746572207B
:1009E00077696C6C20696E6372656D656E742065E5
:1009F00076657279206C6F6F70003D3D3D3D3D3DE9
:100A00003D3D3D3D3D3D3D3D3D3D3D3D3D3D3D3D16
:100A10003D3D3D3D3D3D3D3D3D0A00436F756E749E
:0E0A200065723A2000202D204C45443A2000FB
:107E0000112484B714BE81FFF0D085E080938100F7
:107E100082E08093C00088E18093C10086E0809377
:107E2000C20080E18093C4008EE0C9D0259A86E02C
:107E300020E33CEF91E0309385002093840096BBD3
:107E4000B09BFECF1D9AA8958150A9F7CC24DD24C4
:107E500088248394B5E0AB2EA1E19A2EF3E0BF2EE7
:107E6000A2D0813461F49FD0082FAFD0023811F036
:107E7000013811F484E001C083E08DD089C08234E0
:107E800011F484E103C0853419F485E0A6D080C0E4
:107E9000853579F488D0E82EFF2485D0082F10E0AE
:107EA000102F00270E291F29000F111F8ED06801E7
:107EB0006FC0863521F484E090D080E0DECF843638
:107EC00009F040C070D06FD0082F6DD080E0C81688
:107ED00080E7D80618F4F601B7BEE895C0E0D1E017
:107EE00062D089930C17E1F7F0E0CF16F0E7DF06D8
:107EF00018F0F601B7BEE89568D007B600FCFDCFD4
:107F0000A601A0E0B1E02C9130E011968C91119780
:107F100090E0982F8827822B932B1296FA010C0160
:107F200087BEE89511244E5F5F4FF1E0A038BF0790
:107F300051F7F601A7BEE89507B600FCFDCF97BE46
:107F4000E89526C08437B1F42ED02DD0F82E2BD052
:107F50003CD0F601EF2C8F010F5F1F4F84911BD097
:107F6000EA94F801C1F70894C11CD11CFA94CF0C13
:107F7000D11C0EC0853739F428D08EE10CD085E9AC
:107F80000AD08FE07ACF813511F488E018D01DD067
:107F900080E101D065CF982F8091C00085FFFCCF94
:107FA0009093C60008958091C00087FFFCCF809118
:107FB000C00084FD01C0A8958091C6000895E0E648
:107FC000F0E098E1908380830895EDDF803219F02E
:107FD00088E0F5DFFFCF84E1DECF1F93182FE3DFCA
:107FE0001150E9F7F2DF1F91089580E0E8DFEE27F6
:047FF000FF270994CA
:027FFE00040479
:00000001FF
